:020000040800F2
:100000000000022099070008E5040008E704000842
:10001000E9040008EB040008ED04000800000000FB
:10002000000000000000000000000000EF040008D5
:10003000F104000800000000F3040008F5040008C3
:10004000E9070008E9070008E9070008E9070008D0
:10005000E9070008E9070008E9070008E9070008C0
:10006000E9070008E9070008E9070008E9070008B0
:10007000E9070008E9070008E9070008E9070008A0
:10008000E9070008E9070008E9070008E907000890
:10009000E9070008E9070008E9070008E907000880
:1000A000E9070008E9070008E9070008E907000870
:1000B000E9070008E9070008E9070008E907000860
:1000C000E9070008E9070008E9070008E907000850
:1000D000E9070008E9070008E9070008E907000840
:1000E000E9070008E9070008E9070008E907000830
:1000F000E9070008E9070008E9070008E907000820
:10010000E9070008E9070008E9070008E90700080F
:10011000E9070008E9070008E9070008E9070008FF
:10012000E9070008E9070008E9070008E9070008EF
:10013000E9070008E9070008E9070008E9070008DF
:10014000E9070008E9070008E9070008E9070008CF
:10015000E9070008E9070008E9070008E9070008BF
:10016000E9070008E9070008E9070008E9070008AF
:10017000E9070008E9070008E90700080000000097
:08018000E9070008E907000887
:1001880010B5054C237833B9044B13B10448AFF3C9
:1001980000800123237010BD04000020000000002F
:1001A8004408000808B5034B1BB103490348AFF3E3
:1001B800008008BD00000000080000204408000876
:1001C800F0B58BB004AD002404940594069407940C
:1001D800089409941B4B1A6B42F480721A631A6BC9
:1001E80002F480720392039A1A6B42F080021A6337
:1001F8001A6B02F080020292029A1A6B42F0010214
:100208001A631B6B03F001030193019B0E484FF027
:10021800A06383610D4E4FF44023B3614FF4A06394
:10022800049301270597294600F0F8F90C23049355
:1002380005970694079408942946304600F0EEF98D
:100248000BB0F0BD0038024000200240001C024004
:1002580000B500F00700C0F1070CBCF1040F28BF7F
:100268004FF0040C031D062B0FD9C31E4FF0FF3EA1
:100278000EFA0CF021EA000199400EFA03FE22EA78
:100288000E0241EA02005DF804FB0023EEE70000DD
:1002980010B52D4A136823F0070343F005031360D4
:1002A800294B1B6803F00703052BF9D1274A13686C
:1002B80043F48043136002F5E432136843F4803357
:1002C8001360234B1B6813F4003FFAD0204B5A6885
:1002D80020491140204A0A435A605A6822F44032A1
:1002E8005A601A6842F080721A60194B1B6813F042
:1002F800007FFAD0154B5B6813F4804FFAD0144B8B
:100308009A6822F0F0029A609A6822F4E05242F465
:10031800A0529A609A6822F4604242F400429A60BD
:100328009A6822F0030242F002029A60084B9B6826
:1003380003F00C03082BF9D1084C204600F0F2F921
:10034800204600F015FA10BD003C02400070004045
:10035800003802400080BFFF042A4000007A030AE8
:1003680000B583B0324B5A6C42F480425A645A6CDE
:1003780002F480420192019A1A6C42F080521A6487
:100388001B6C03F080530093009B2A4CE26822F414
:10039800E0621204120C284B1343E360E068002269
:1003A8000F21C0F30220FFF753FF0301DBB284F8EB
:1003B8002330FFF76DFFFFF703FF00F041F81F4CF4
:1003C80063691A0402F48022DB4303F00403134335
:1003D800A3614FF4967000F0B5F963691A0402F44A
:1003E8000022DB4303F008031343A3614FF4967024
:1003F80000F0A8F904F5806463691A0402F08072B9
:10040800DB4303F480731343A3614FF4967000F049
:1004180099F963691A0402F08062DB4303F480638C
:100428001343A3614FF4967000F08CF9C7E700BF3F
:100438000038024000ED00E00003FA05001C02400D
:1004480030B593B008AD28220021284600F0C9F93C
:1004580002A9002402944C608C60CC600C614C6151
:100468001B4B5A6C42F480525A645A6C02F4805204
:100478000192019A1A6B42F001021A631B6B03F096
:1004880001030093009BF0230293022303930323A9
:100498000493052307930F4800F0C0F808944FF41D
:1004A800827309930A940B940C944FF480230D9350
:1004B8000E940F9410940A231193074C2946204652
:1004C80000F0F5F8636823F01003636013B030BDE3
:1004D800003802400000024000300140FEE7FEE71D
:1004E800FEE7FEE7FEE7704770477047704710B4B5
:1004F800846891FAA1F3A3B1B3FA83F35B004FF0D8
:10050800030C0CFA03F324EA030391FAA1F151B1A5
:10051800B1FA81F149008A40134383605DF8044BC6
:1005280070472023EAE72021F4E710B4C46891FA61
:10053800A1F3A3B1B3FA83F35B004FF0030C0CFAF9
:1005480003F324EA030391FAA1F151B1B1FA81F15D
:1005580049008A401343C3605DF8044B7047202369
:10056800EAE72021F4E710B4046A91FAA1F3A3B1F1
:10057800B3FA83F39B004FF00F0C0CFA03F324EA51
:10058800030391FAA1F151B1B1FA81F189008A40CE
:10059800134303625DF8044B70472023EAE72021E8
:1005A800F4E710B4446A090A91FAA1F3A3B1B3FAC3
:1005B80083F39B004FF00F0C0CFA03F324EA0304B7
:1005C80091FAA1F151B1B1FA81F189008A4014433D
:1005D80044625DF8044B70472023EAE72021F4E7E2
:1005E80010B4046891FAA1F3A3B1B3FA83F35B00E2
:1005F8004FF0030C0CFA03F324EA030391FAA1F178
:1006080051B1B1FA81F149008A40134303605DF8A2
:10061800044B70472023EAE72021F4E7F8B50746A2
:100628000E460D6895FAA5F515B1B5FA85F51AE0E7
:10063800202518E0B26821463846FFF758FFF268CF
:100648007B6823EA040304FB02F213437B6016E091
:10065800726921463846FFF7A4FF7268214638467A
:10066800FFF7BEFF0135346834FA05F21DD00122C8
:10067800AA401440F6D07368013B012BDAD93269DD
:1006880021463846FFF751FF7368022BE5D194FAEB
:10069800A4F3002BDCD0B3FA83F3072BD8D8726904
:1006A80021463846FFF75FFFD7E70020F8BD02462E
:1006B800036813F0400F2ED110B4006820F47F4077
:1006C80020F0BF000B684C6823438C682343CC6838
:1006D80023430C6923434C6923438C692343CC6926
:1006E80023430C6A234318431060536823F0040320
:1006F800C88A034353600B6AB3F5005F07D0002034
:10070800D36923F40063D3615DF8044B70478B8C85
:1007180013610020F4E70120D36923F40063D36157
:1007280070470000064BA3FB00239B09013B4FF0D9
:10073800E02253610023936105231361704700BFD2
:10074800D34D621082B04FF0E0231B690193019BE7
:10075800B0F1FF3F00D0013038B14FF0E0231B6902
:1007680013F4803FF8D00138F6E702B07047000074
:10077800014B1860704700BF00000020034AD2F800
:10078800883043F47003C2F88830704700ED00E009
:10079800DFF834D0FFF7F2FF0C480D490D4A00236B
:1007A80002E0D458C4500433C4188C42F9D30A4A1E
:1007B8000A4C002301E013600432A242FBD300F08C
:1007C80019F8FFF7CDFD7047000002200000002057
:1007D8000400002064080008040000202000002015
:1007E800FEE702440346934200D1704703F8011B19
:1007F800F9E7000070B50D4B0D4D5B1B9C100026F2
:10080800A64209D100F01AF80A4D0B4B5B1B9C104D
:100818000026A64205D170BD55F8043B984701361D
:10082800EEE755F8043B98470136F2E75C08000804
:100838005C0800085C08000860080008F8B500BFFC
:10084800F8BC08BC9E467047F8B500BFF8BC08BCA9
:040858009E46704701
:04085C00AD010008E2
:040860008901000802
:040864000024F40078
:04000005080007994F
:00000001FF
